:100000000C9438000C9442000C9442000C94420072
:100010000C9442000C9442000C9442000C94420058
:100020000C9442000C9442000C9442000C94420048
:100030000C9442000C9442000C9442000C94420038
:100040000C9442000C9442000C9442000C94420028
:100050000C9442000C9442000C9442000C94420018
:100060000C9442000C9442000C9442000C94420008
:1000700011241FBECFEFD0E1DEBFCDBF0E944400F0
:100080000C9453000C940000209A2198299A289AE5
:1000900020E63AEE199902C0289A01C02898C901B1
:0A00A0000197F1F7F7CFF894FFCFB6
:00000001FF
